{
  "_format": "hh-sol-artifact-1",
  "contractName": "storeHash",
  "sourceName": "contracts/StoreHash.sol",
  "abi": [
    {
      "inputs": [],
      "stateMutability": "nonpayable",
      "type": "constructor"
    },
    {
      "anonymous": false,
      "inputs": [
        {
          "indexed": false,
          "internalType": "string",
          "name": "fileName",
          "type": "string"
        },
        {
          "indexed": false,
          "internalType": "bytes32",
          "name": "fileHash",
          "type": "bytes32"
        }
      ],
      "name": "HashStored",
      "type": "event"
    },
    {
      "inputs": [
        {
          "internalType": "string",
          "name": "fileName",
          "type": "string"
        }
      ],
      "name": "getHash",
      "outputs": [
        {
          "internalType": "bytes32",
          "name": "",
          "type": "bytes32"
        }
      ],
      "stateMutability": "view",
      "type": "function"
    },
    {
      "inputs": [],
      "name": "owner",
      "outputs": [
        {
          "internalType": "address",
          "name": "",
          "type": "address"
        }
      ],
      "stateMutability": "view",
      "type": "function"
    },
    {
      "inputs": [
        {
          "internalType": "string",
          "name": "fileName",
          "type": "string"
        },
        {
          "internalType": "bytes32",
          "name": "fileHash",
          "type": "bytes32"
        }
      ],
      "name": "storeFileHash",
      "outputs": [],
      "stateMutability": "nonpayable",
      "type": "function"
    }
  ],
  "bytecode": "0x608060405234801561001057600080fd5b50336000806101000a81548173ffffffffffffffffffffffffffffffffffffffff021916908373ffffffffffffffffffffffffffffffffffffffff160217905550610593806100606000396000f3fe608060405234801561001057600080fd5b50600436106100415760003560e01c80635b6beeb91461004657806362ea23c8146101155780638da5cb5b146101da575b600080fd5b6100ff6004803603602081101561005c57600080fd5b810190808035906020019064010000000081111561007957600080fd5b82018360208201111561008b57600080fd5b803590602001918460018302840111640100000000831117156100ad57600080fd5b91908080601f016020809104026020016040519081016040528093929190818152602001838380828437600081840152601f19601f82011690508083019250505050505050919291929050505061020e565b6040518082815260200191505060405180910390f35b6101d86004803603604081101561012b57600080fd5b810190808035906020019064010000000081111561014857600080fd5b82018360208201111561015a57600080fd5b8035906020019184600183028401116401000000008311171561017c57600080fd5b91908080601f016020809104026020016040519081016040528093929190818152602001838380828437600081840152601f19601f82011690508083019250505050505050919291929080359060200190929190505050610281565b005b6101e2610539565b604051808273ffffffffffffffffffffffffffffffffffffffff16815260200191505060405180910390f35b60006001826040518082805190602001908083835b602083106102465780518252602082019150602081019050602083039250610223565b6001836020036101000a0380198251168184511680821785525050505050509050019150509081526020016040518091039020549050919050565b60008054906101000a900473ffffffffffffffffffffffffffffffffffffffff1673ffffffffffffffffffffffffffffffffffffffff163373ffffffffffffffffffffffffffffffffffffffff1614610342576040517f08c379a000000000000000000000000000000000000000000000000000000000815260040180806020018281038252600e8152602001807f4e6f7420617574686f72697a656400000000000000000000000000000000000081525060200191505060405180910390fd5b6000801b6001836040518082805190602001908083835b6020831061037c5780518252602082019150602081019050602083039250610359565b6001836020036101000a03801982511681845116808217855250505050505090500191505090815260200160405180910390205414610423576040517f08c379a00000000000000000000000000000000000000000000000000000000081526004018080602001828103825260138152602001807f4861736820616c7265616479206578697374730000000000000000000000000081525060200191505060405180910390fd5b806001836040518082805190602001908083835b6020831061045a5780518252602082019150602081019050602083039250610437565b6001836020036101000a0380198251168184511680821785525050505050509050019150509081526020016040518091039020819055507f365546d942c9391c8c34d4c12966796cfae775383651b55c21212df5023898a882826040518080602001838152602001828103825284818151815260200191508051906020019080838360005b838110156104fa5780820151818401526020810190506104df565b50505050905090810190601f1680156105275780820380516001836020036101000a031916815260200191505b50935050505060405180910390a15050565b60008054906101000a900473ffffffffffffffffffffffffffffffffffffffff168156fea26469706673582212201f1693dff254cb2be0ddd2e6af962470039cde0a574a4ecfa9af31fda44eb3d864736f6c63430007030033",
  "linkReferences": {},
  "deployedLinkReferences": {}
}